:020000020000FC
:100000005BC00000000022C021C013C0000000003F
:1000100000000000000000000000000035C00000EB
:1000200000000000000000000000000000000000D0
:100030001AC0EF93FF938F93E3E5F1E0808188602E
:10004000808386D18F91FF91EF911895EF93FF9365
:100050008F93E3E5F1E080818160808379D18F9196
:10006000FF91EF911895EF93FF938F93EEE4F1E0FA
:10007000808184608083ECEBFF2780818E77808392
:100080008F91FF91EF911895EF93FF938F937F934B
:1000900015BC87E08BBBE8E6FF2787E08083E3E5BC
:1000A000F1E08081EEE4F1E07081782B70837F9144
:1000B0008F91FF91EF91189502E00EBF0FEF0DBFEA
:1000C000112480E592E087BDEEE6FF2790838CE067
:1000D00063EF87B96AB9E8E687E08083EDE688E0F8
:1000E0008083ECE683E08083EBE68FEF808384E01F
:1000F00083BF80E0992760E2772740E051E054D049
:1001000080E299276DE177274FE251E04DD03FD053
:1001100086E0992706D1AEE4B1E01C929FEF9CBB2C
:100120009BBB78942C9022FC28D020FC0ED023FC82
:1001300003D0F8CF599AFFCF0C91077F0C935999B0
:1001400002C0599A01C0599808950C910E7F0C93E2
:1001500083B196B19370D9D0811521F4C4D08115A3
:1001600009F404C00C91012B0F7B0C93089545E01A
:1001700043BF889544E043BF08950C910B7F0C93D7
:100180002ED0BFD080FDAFD081FDF1DF0895EAE22F
:10019000F1E08FE291E081939083EEE2F1E0108252
:1001A000EDE2F1E010820895E42FF52F680F05C00D
:1001B00081BDF89A90B5919383958617C9F70895F4
:1001C000EF93FF93ECE2F1E08081811529F4EDE2F9
:1001D000F1E08081811501F4FF91EF910895ABD09A
:1001E000803639F0803849F0803A49F0883841F05B
:1001F00008C0ECE2F1E0108211C02AD00FC0F9CFA4
:1002000099DF883A29F0883B19F0803C19F006C044
:100210000BD004C05898EDE2F1E01082ECEBFF2720
:100220008081816880830895AF93BF93EAE2F1E013
:10023000A081AF3209F4B1E0EDE2F1E00080A00D61
:10024000B11D039400828C917FD0BF91AF9108952E
:10025000AF93BF930F931F9373D0082EACE2B1E01E
:100260000C91102F117003FD1CD001FF05C0EAE2B4
:10027000F1E08191908102C08AE291E0E82FF92FAC
:10028000E10F0082039502FF06C0803221F4913015
:1002900011F4086006D00C931F910F91BF91AF919C
:1002A0000895E0E2F1E081919081913029F092305F
:1002B00071F0983099F016C0E6E2F1E011921192D7
:1002C00011921082EEE2F1E071E070830BC0EAE27D
:1002D000F1E096E281E09193808304C0EEE2F1E0E8
:1002E00072E0708308956CDF811551F4EAE2F1E069
:1002F00066E271E061937083EEE2F1E01082589A59
:100300000895EEE2F1E080810895082E59DF81150D
:1003100039F4E6E2F1E064E0619311920192908396
:100320000895E8EBFF2792E09083EAEB8083ECEB03
:1003300095E490830895E9EBFF278081887F0895F5
:10034000EBEBFF2780810895EBEBFF278083089577
:0E035000E8E6FF271082F5E016BCF5BD089523
:00000001FF
