:020000020000FC
:100000004DC02FC016C0000020C00000000000003E
:1000100000000000000000000000000000000000E0
:1000200000000000000000000000000000000000D0
:1000300024C0EF93FF938F93EEE4F1E0808188601A
:1000400080838F91FF91EF911895EF93FF938F939A
:10005000EEE4F1E08081816080838F91FF91EF91E8
:100060001895EF93FF938F93EEE4F1E08081816028
:1000700080838F91FF91EF911895EF93FF938F936A
:10008000EEE4F1E0808184608083ECEBFF278081E7
:100090008E7780838F91FF91EF91189502E00EBFCC
:1000A0000FEF0DBF1124EFE4F1E06AE972E080E0A8
:1000B00090E061937193819390834DD18CE063EFD5
:1000C00087B96AB9E9E6FF2785E0808383E08DBBC5
:1000D000E8E682E08083ECE683E0808384E083BF0F
:1000E00080E099276FE1772740E051E059D080E226
:1000F00099276DE177274FE251E052D044D086E056
:10010000992712D1AEE4B1E01C929FEF9CBB9BBB40
:1001100078942C9084E0282E22FC2BD020FC13D045
:1001200023FC03D0F6CF599AFFCF6FEC77E080E045
:1001300090E011D10C91077F0C93599902C0599A04
:1001400001C0599808950C910E7F0C9383B196B11C
:100150009370D7D0811521F4B3D0811509F402C072
:1001600001600C93089545E043BF889544E043BF88
:1001700008950C910B7F0C931FD0BFD080FDA0D0B1
:1001800081FDF1DF0895EAE2F1E08FE291E08193F1
:100190009083EEE2F1E01082EDE2F1E0108208954A
:1001A000E42FF52F680F05C081BDF89A90B59193A3
:1001B00083958617C9F70895C1D0803639F0803805
:1001C00049F0803A49F0883841F008C0ECE2F1E0AB
:1001D000108211C02AD00FC0F9CFA5DF883A29F0CC
:1001E000883B19F0803C19F006C00BD004C07ED0CB
:1001F000EDE2F1E01082ECEBFF27808181688083E3
:100200000895AF93BF93EAE2F1E0A081AF3209F421
:10021000B1E0EDE2F1E00080A00DB11D0394008299
:100220008C9195D0BF91AF910895AF93BF930F93E9
:100230001F9389D0082EACE2B1E00C91102F117001
:1002400003FD1CD001FF05C0EAE2F1E0819190813D
:1002500002C08AE291E0E82FF92FE10F00820395B6
:1002600002FF06C0803221F4913011F4086006D0FC
:100270000C931F910F91BF91AF910895E0E2F1E0CF
:1002800081919081913029F0923071F0983099F0FD
:1002900016C0E6E2F1E01192119211921082EEE2A4
:1002A000F1E071E070830BC0EAE2F1E096E281E0F8
:1002B0009193808304C0EEE2F1E072E070830895D0
:1002C000ECE2F1E08081811581F4EDE2F1E08081E2
:1002D000811559F4EAE2F1E066E271E0619370831E
:1002E000EEE2F1E01082589A812D08958BB1817071
:1002F000813011F430D058980895EEE2F1E0808119
:100300000895ECE2F1E04081411561F4EDE2F1E0A5
:100310004081411539F4E6E2F1E064E06193119225
:1003200081939083842F0895E8EBFF2792E09083D8
:10033000EAEB8083ECEB95E490830895E9EBFF27EB
:100340008081887F0895EBEBFF2780810895EBEB98
:10035000FF27808308956F937F938F939F93EFE49C
:10036000F1E0619171918191908104C06150704080
:10037000804090400024062A072A082A092A0114EE
:0C038000A9F79F918F917F916F910895D4
:00000001FF
