:020000020000FC
:100000004DC02FC016C0000020C00000000000003E
:1000100000000000000000000000000000000000E0
:1000200000000000000000000000000000000000D0
:1000300024C0EF93FF938F93EEE4F1E0808188601A
:1000400080838F91FF91EF911895EF93FF938F939A
:10005000EEE4F1E08081816080838F91FF91EF91E8
:100060001895EF93FF938F93EEE4F1E08081816028
:1000700080838F91FF91EF911895EF93FF938F936A
:10008000EEE4F1E0808184608083ECEBFF278081E7
:100090008E7780838F91FF91EF91189502E00EBFCC
:1000A0000FEF0DBF11246AE972E080E090E047D1C4
:1000B0008CE063EF87B96AB9E9E6FF2785E08083C2
:1000C00083E08DBBE8E682E08083ECE683E080831A
:1000D00084E083BF80E099276FE1772740E051E01B
:1000E00059D081E299276DE177274FE251E052D054
:1000F00047D086E099270CD1AEE4B1E01C929FEF87
:100100009CBB9BBB10E0112E78942C9084E0282E91
:1001100022FC2CD020FC13D023FC03D0F6CF599A1C
:10012000FFCF6FEC77E080E090E009D10C91077F82
:100130000C93599902C0599A01C0599808950C918D
:100140000E7F0C9383B196B19370CFD0811521F4BB
:10015000B4D0811509F402C001600C930895DFDF6B
:1001600045E043BF889544E043BF08950C910B7F61
:100170000C931CD0B6D081FDA0D082FDF0DF089595
:10018000EAE2F1E08FE291E081939083EEE2F1E028
:1001900010820895E42FF52F680F05C081BDF89AED
:1001A00090B5919383958617C9F70895BBD0803693
:1001B00039F0803849F0803A49F0883841F008C079
:1001C000ECE2F1E0108213C02DD011C0F9CFA7DF0F
:1001D000883A29F0883B41F0803C41F008C0EDE2CC
:1001E000F1E010820AD003C008D001C05A98ECEBAD
:1001F000FF278081816880830895AF93BF93EAE2EF
:10020000F1E0A191B081AF3209F4B1E0EDE2F1E0AB
:100210000080A00DB11D8C91039400828CD0BF9101
:10022000AF910895AF93BF930F931F9380D0082E83
:10023000ACE2B1E00C91102F117003FD1CD001FF56
:1002400005C0EAE2F1E08191908102C08AE291E08A
:10025000E82FF92FE10F0082039502FF06C0E0327C
:1002600021F4F13011F4086006D00C931F910F9126
:10027000BF91AF910895E0E2F1E0919180819130DA
:1002800029F0923071F0983099F016C0E6E2F1E072
:100290001192119211921082EEE2F1E071E07083FE
:1002A0000BC0EAE2F1E096E281E09193808304C022
:1002B000EEE2F1E072E07083089531DFECE2F1E00C
:1002C0008081811569F4EDE2F1E08081811541F4CE
:1002D000EAE2F1E066E271E0619370835A9A812D5F
:1002E0000895EEE2F1E080810895ECE2F1E04081D2
:1002F000411561F4EDE2F1E04081411539F4E6E2A7
:10030000F1E064E06193119281939083842F0895CA
:10031000E8EBFF2792E09083EAEB8083ECEB95E437
:1003200090830895E9EBFF278081887F0895EBEBA8
:10033000FF2780810895EBEBFF278083089504C099
:1003400061507040804090400024062A072A082A05
:08035000092A0114A9F7089520
:00000001FF
