:020000020000FC
:1000000048C02FC016C0000020C000000000000043
:1000100000000000000000000000000000000000E0
:1000200000000000000000000000000000000000D0
:1000300024C0EF93FF938F93EEE4F1E0808188601A
:1000400080838F91FF91EF911895EF93FF938F939A
:10005000EEE4F1E08081816080838F91FF91EF91E8
:100060001895EF93FF938F93EEE4F1E08081816028
:1000700080838F91FF91EF911895EF93FF938F936A
:10008000EEE4F1E08081846080838F91FF91EF91B5
:10009000089502E00EBF0FEF0DBF11248CE063EF57
:1000A00087B96AB9E9E6FF2785E0808383E08DBBE5
:1000B000E8E682E08083ECE683E0808384E083BF2F
:1000C00080E0992760E2772740E051E044D081E268
:1000D00099276EE177274FE251E03DD035D086E099
:1000E0009927F0D0AEE4B1E09FEF9CBB9BBB789426
:1000F0002C9022FC1FD020FC13D023FC03D0F8CF7F
:10010000599AFFCF6AE07AE180E090E0F3D00C9159
:10011000077F0C93599902C0599A01C059980895C4
:100120000C910E7F0C93089545E043BF889544E001
:1001300043BF08950C910B7F0C9319D0ACD081FD77
:1001400097D082FDF1DF0895EAE2F1E08FE291E0DD
:10015000819390830895E42FF52F0024800D81BDB5
:10016000F89A90B5919303940616C1F70895B4D008
:10017000803629F0803839F0803A39F007C0ECE257
:10018000F1E0108212C029D010C0F9CF883A29F0CE
:10019000883B41F0803C41F008C0EDE2F1E0108284
:1001A0000AD003C008D001C05A98ECEBFF27808129
:1001B000808378940895AF93BF93EAE2F1E0A19130
:1001C000B081EDE2F1E00080A00DB11D8C910394AF
:1001D00000828CD0BF91AF910895AF93BF930F93DE
:1001E0001F9380D0082EACE2B1E00C91102F1E7F3F
:1001F00003FD1CD001FF05C0EAE2F1E0819190818E
:1002000002C08AE291E0E82FF92FE10F0082039506
:1002100002FF07C0E03229F4F13019F408600C93B2
:1002200005D01F910F91BF91AF910895E0E2F1E0E9
:1002300091918081913029F0923071F0983099F04D
:1002400016C0E6E2F1E01192119211921082EEE2F4
:10025000F1E071E070830BC0EAE2F1E096E281E048
:100260009193808304C0EEE2F1E072E07083089520
:10027000ECE2F1E08081811569F4EDE2F1E080814A
:10028000811541F4EAE2F1E066E271E06193708386
:100290005A9A812D0895EEE2F1E080810895ECE212
:1002A000F1E04081411561F4EDE2F1E0408141155A
:1002B00039F4E6E2F1E064E0619311928193908376
:1002C000842F0895E8EBFF2792E09083EAEB808388
:1002D000ECEB95EC90830895E9EBFF2798EF808194
:1002E00089230895EBEBFF2780810895EBEBFF272F
:1002F0008083089504C06150704080409040002485
:0E030000062A072A082A092A0114A9F70895D7
:00000001FF
